:03000000020800F3
:0C080000787FE4F6D8FD75810A020847F5
:0408C8000208000022
:03000B000208BF29
:0908BF00B2B7758CFF758A48324E
:030023000208B020
:0F08B000309906C299850A9932859980C298328B
:10088C007590FF75A892759850758921758DFD75B9
:10089C008CFF758A48D28ED28C850A9985900A85F0
:0408AC000AA080F826
:10080C0002088CE493A3F8E493A34003F68001F26E
:10081C0008DFF48029E493A3F85407240CC8C333ED
:10082C00C4540F4420C8834004F456800146F6DFBC
:10083C00E4800B01020408102040809008C8E47E7C
:10084C00019360BCA3FF543F30E509541FFEE493B1
:10085C00A360010ECF54C025E060A840B8E493A378
:10086C00FAE493A3F8E493A3C8C582C8CAC583CAA3
:10087C00F0A3C8C582C8CAC583CADFE9DEE780BE5B
:0108CC00002B
:00000001FF
