:0400E6007F107E27E2
:1000EA00E4FDFCC3ED9FEE6480F8EC648098500751
:0700FA000DBD00010C80ECBC
:0101010022DB
:10000300C290D291D292D2932094091200E63094F6
:10001300FD7FC0222095091200E63095FD7FF9226D
:100023002096091200E63096FD7FA422209709123C
:1000330000E63097FD7FB022D290C291D292D29344
:100043002094091200E63094FD7F9922209509122D
:1000530000E63095FD7F92222096091200E6309645
:10006300FD7F82222097091200E63097FD7FF82258
:10007300D290D291C292D2932094091200E6309486
:10008300FD7F80222095091200E63095FD7F9022A6
:100093002096091200E63096FD7F3322209709123D
:1000A30000E63097FD7F2D22D290D291D292C29357
:1000B3002094091200E63094FD7F43222095091213
:1000C30000E63095FD7F30222096091200E6309637
:1000D300FD7F3D222097091200E63097FD7F2B22FA
:0300E3007F6E220B
:0A010E007F6EBF6E0512000380F83B
:0101180022C4
:0701190012010E8FA080F916
:03000000020102F8
:0C010200787FE4F6D8FD75810702011932
:00000001FF
