:10027D005374617274696E672E2E2E0041444320B3
:09028D0076616C7565203D2000CE
:10014A00E4F5081202C31201D37D01E4FF1202AFE3
:10015A007BFF7A02797D12020F7F017E0012023A3A
:10016A001202E97F011200038F08E4FDFF1202AFB9
:10017A007BFF7A02798912020F7F411201917FE88F
:07018A007E0312023A80DC43
:10023A00758921E4FDFCC3ED9FEC9E5016758CFC7C
:10024A00758A66D28C308DFDC28CC28D0DBD0001BF
:03025A000C80E332
:01025D00227E
:1002D7008F90C2B5C2B6D2B77F0A7E0012023AC269
:0202E700B7223C
:070296001200F5EF2430FF18
:10029D008F90D2B5C2B6D2B77F0A7E0012023AC293
:0202AD00B72276
:1001D3007F381202D77F017E0012023A7F0E12028D
:1001E300D77F017E0012023A7F011202D77F017E80
:1001F3000012023A7F061202D77F017E0012023AF2
:0C0203007F801202D77F017E0002023AC9
:06020F008B098A0A890B2D
:10021500E4F50CF50DAB09AA0AA90B850D82850C31
:10022500831200C8FF600D12029D050DE50D70E5F6
:04023500050C80E153
:0102390022A2
:1002AF008F09ED7006E50924808004E50924C0FF5D
:0402BF001202D7222E
:0C02E9007F011202D77F017E0002023A62
:100191008E098F0A7C007D64120296AE09AF0A7C3B
:1001A100007D641200F57E007F0ACFCDCFCECCCE8C
:1001B100120296AE09AF0A7C007D641200F57E0042
:1001C1007F0ACFCDCFCECCCE1200F5ED2430FF0289
:0201D100029D8D
:06025E00D2A77F0A7E001A
:100264007C007D0F1200F5E4FDFCC3ED9FEC9E5075
:08027400070DBD00010C80F232
:01027C00225F
:1002C300C2A0C2A1C2A2C2A3D2A4C2A5C2A6C2A7EF
:0402D3007580FF2211
:10000300E4FBFAF509F50AEFB40800504D90001728
:10001300F828287302002F02003302003702003B46
:1000230002003F02004702004F020057C2A2800EA7
:10003300C2A28012C2A28016C2A2801AD2A2C2A1F8
:10004300C2A08016D2A2C2A1D2A0800ED2A2D2A1F7
:10005300C2A08006D2A2D2A1D2A0120260D2A31261
:10006300025EC2A7D2A6120260D2A7C2A312026086
:10007300C2A7C2A6E4FAFBB2A712026030A40B0B1C
:10008300BB00010ABA07F0BBD0EDE4FAFBB2A7123A
:10009300026020A40B0BBB00010ABA07F0BBD0ED32
:1000A300C2A7D2A512026012025EC2A7120260D2D8
:1000B300A7AF807509008F0A120260C2A5C2A712FA
:0400C3000260AF0A1E
:0100C7002216
:030000000202F504
:0C02F500787FE4F6D8FD75810D02014A07
:1000C800BB010CE58229F582E5833AF583E02250ED
:1000D80006E92582F8E622BBFE06E92582F8E22237
:0D00E800E58229F582E5833AF583E4932251
:1000F500BC000BBE0029EF8DF084FFADF022E4CCEF
:10010500F875F008EF2FFFEE33FEEC33FCEE9DECB7
:10011500984005FCEE9DFE0FD5F0E9E4CEFD22EDFD
:10012500F8F5F0EE8420D21CFEADF075F008EF2F47
:10013500FFED33FD4007985006D5F0F222C398FD38
:050145000FD5F0EA22D5
:00000001FF
