:10010B00758921E4FDFCC3ED9FEC9E5016758CFCAC
:10011B00758A66D28C308DFDC28CC28D0DBD0001EF
:03012B000C80E362
:01012E0022AE
:10004B008F0853900FE50854F04290C2A0C2A1D282
:10005B00A27F0A7E0012010BC2A253900FE508C4C7
:10006B0054F04290C2A0C2A1D2A27F0A7E0012011C
:04007B000BC2A222F0
:10007F008F0D53900FE50D54F04290D2A0C2A1D234
:10008F00A27F0A7E0012010BC2A253900FE50DC48E
:10009F0054F04290D2A0C2A1D2A27F0A7E001201D8
:0400AF000BC2A222BC
:100003007F0212004B7F017E0012010B7F2812003A
:100013004B7F017E0012010B7F0E12004B7F017E8E
:100023000012010B7F0112004B7F017E0012010BB6
:100033007F0612004B7F017E0012010B7F801200AE
:080043004B7F017E0002010B5E
:0600E0008B088A09890A61
:1000E600E4F50BF50CAB08AA09A90A850C82850B69
:1000F600831200B3FF600D12007F050CE50C70E55E
:04010600050B80E184
:01010A0022D2
:10014B004A69676E657368005061746F6C69796199
:01015B0000A3
:10012F001200037BFF7A01794B1200E07FC01200AF
:0C013F004B7BFF7A0179531200E080FE38
:0300000002015C9E
:0C015C00787FE4F6D8FD75810D02012FBC
:1000B300BB010CE58229F582E5833AF583E0225002
:1000C30006E92582F8E622BBFE06E92582F8E2224C
:0D00D300E58229F582E5833AF583E4932266
:00000001FF
