:0F02A40044495354414E43453A2D00636D730056
:0802BF00020D0000020F000017
:100111001201DA1202B37BFF7A0279A41202167F6E
:10012100E87E0312024112019C8E0F8F10E4FD7FC5
:100131000A12027EAF10AE0F12015AE4FD7F0D12BA
:10014100027E7BFF7A0279AF1202167F587E02127D
:090151000241E4F50DF50E80CD2C
:10019C00C2A0D2A1758921758DD1758BD1C2A00059
:1001AC00D2A000000000000000000000C2A0D2A1FC
:1001BC0030A1FDD28E308FFDC28EC28F050EE50EA2
:0D01CC007002050D30A10280EAAE0DAF0EED
:0101D9002203
:10024100758921E4FDFCC3ED9FEC9E5016758CFC75
:10025100758A66D28C308DFDC28CC28D0DBD0001B8
:030261000C80E32B
:010264002277
:100292008F90C2B5C2B6D2B77F0A7E00120241C2A7
:0202A200B72281
:070265001200BCEF4430FF62
:10026C008F90D2B5C2B6D2B77F0A7E00120241C2BD
:02027C00B722A7
:1001DA007F381202927F017E001202417F0E1202C4
:1001EA00927F017E001202417F011202927F017EFC
:1001FA00001202417F061202927F017E0012024122
:0C020A007F801202927F017E0002024100
:060216008B088A09890A29
:10021C00E4F50BF50CAB08AA09A90A850C82850B31
:10022C008312008FFF600D12026C050CE50C70E55B
:04023C00050B80E14D
:01024000229B
:10027E008F08ED7006E50824808004E50824C0FF91
:04028E0012029222A4
:0C02B3007F011202927F017E00020241D6
:10015A008E088F097C007D64120265AE08AF097CA7
:10016A00007D641200BC7E007F0ACFCDCFCECCCEFC
:10017A00120265AE08AF097C007D641200BC7E00E5
:10018A007F0ACFCDCFCECCCE1200BCED4430FF02D9
:02019A00026CF5
:03000000020003F8
:0C000300787FE4F6D8FD75811002004AF9
:10008F00BB010CE58229F582E5833AF583E0225026
:10009F0006E92582F8E622BBFE06E92582F8E22270
:0D00AF00E58229F582E5833AF583E493228A
:1000BC00BC000BBE0029EF8DF084FFADF022E4CC28
:1000CC00F875F008EF2FFFEE33FEEC33FCEE9DECF1
:1000DC00984005FCEE9DFE0FD5F0E9E4CEFD22ED37
:1000EC00F8F5F0EE8420D21CFEADF075F008EF2F81
:1000FC00FFED33FD4007985006D5F0F222C398FD72
:05010C000FD5F0EA220E
:10000F00020111E493A3F8E493A34003F68001F2F5
:10001F0008DFF48029E493A3F85407240CC8C333F2
:10002F00C4540F4420C8834004F456800146F6DFC1
:10003F00E4800B01020408102040809002BFE47E90
:10004F00019360BCA3FF543F30E509541FFEE493B6
:10005F00A360010ECF54C025E060A840B8E493A37D
:10006F00FAE493A3F8E493A3C8C582C8CAC583CAA8
:10007F00F0A3C8C582C8CAC583CADFE9DEE780BE60
:0102C7000036
:00000001FF
