:10030400758921E4FDFCC3ED9FEC9E5016758CFCB1
:10031400758A66D28C308DFDC28CC28D0DBD0001F4
:030324000C80E367
:0103270022B3
:10035C008FB0C2A3C2A4D2A57F0A7E00120304C22E
:02036C00A522C8
:100263007F3812035C7F017E001203047F0E1203AA
:100273005C7F017E001203047F0112035C7F017E19
:10028300001203047F0612035C7F017E0012030445
:0C0293007F8012035C7F017E00020304E8
:06029F008B108A11891288
:1002A500E4F513F514AB10AA11A912851482851370
:1002B500831202D7601BF5B0D2A3C2A4D2A57F0AD0
:1002C5007E00120304C2A50514E51470D805138039
:0102D500D454
:0102D6002205
:100348008F10ED7006E51024808004E51024C0FFAE
:0403580012035C220E
:0C036E007F0112035C7F017E000203048B
:10017C00547261636B696E67206F6600536F6C61BC
:10018C00722050616E656C005769746820526573FB
:10019C007065637420746F004C6967687420496ED5
:1001AC0074656E7369747900507265706172656400
:1001BC002042793A2D20004E65656C202020446841
:1001CC0072756D697400416E6B69742020204D65E9
:1001DC006574004775696465642042793A2D202066
:1001EC002020200050726F662E482E4B2E4A6164E0
:1001FC00656A6100536F6C617220506F7765722075
:0A020C00737973202000FEFBFDF75C
:10032800E4FDFCC3ED9FEC9E5015E4FBFA0BBB000B
:0F033800010AEB64644A70F50DBD00010C80E40E
:010347002293
:10021600750A03AF0AEF3395E0FE74122FF5827468
:0F022600023EF583E493F5907FB87E0B12032818
:100235007580FFD2A1D2A2D2A07F017E0012032831
:10024500C2A0120328D2A020A1FD7F0A7E001203BE
:0E02550028C2A27F01120328D2A285800F22A8
:10000300120263E4FDFF1203487BFF7A01797C123D
:10001300029F7D017F011203487BFF7A01798812D9
:10002300029F7FB87E0B12030412036EE4FDFF12DE
:1000330003487BFF7A01799412029F7D017F0112AD
:1000430003487BFF7A0179A412029F7FB87E0B12CB
:10005300030412036EE4FDFF1203487BFF7A017968
:10006300B412029F7FD07E0712030412036E7BFF3C
:100073007A0179C312029F7D017F011203487BFF3E
:100083007A0179D212029F7FB87E0B120304120306
:100093006E7BFF7A0179DF12029F7D017F011203DC
:1000A300487BFF7A0179F012029F7FA07E0F120333
:1000B3000412036E7BFF7A02790012029F050AD3B2
:1000C300E50A64809483400BE4F50A120219850F54
:1000D3000B150AC3E50A6480948050081202168542
:1000E3000F09150AC3E50A648094805008120216AA
:1000F300850F08050AD3E50A648094834006E4F576
:100103000A02016CE50BD395094030050AD3E50AD1
:10011300648094834009E4F50A120219850F0EE501
:100123000ED3950C4005850E0C80E0150AC3E50A35
:10013300648094805003750A03802EE508D39509E3
:10014300402D150AE50AB4FF06120216850F0EE5C7
:100153000ED3950C4005850E0C80E7050AD3E50AFE
:10016300648094834003E4F50A120219850F0C7F1F
:09017300107E271203280200C0CF
:0300000002037A7E
:0C037A00787FE4F6D8FD758114020003C2
:1002D700BB010CE58229F582E5833AF583E02250DC
:1002E70006E92582F8E622BBFE06E92582F8E22226
:0D02F700E58229F582E5833AF583E4932240
:00000001FF
