:0406D1007F107E27F1
:1006D500E4FDFCC3ED9FEE6480F8EC648098500760
:0706E5000DBD00010C80ECCB
:0106EC0022EB
:1001EA00C290D291D292D2932094091206D130941D
:1001FA00FD7F30222095091206D13095FD7F3122EC
:10020A002096091206D13096FD7F322220970912D4
:10021A0006D13097FD7F3322D290C291D292D293E7
:10022A002094091206D13094FD7F342220950912B8
:10023A0006D13095FD7F35222096091206D13096D7
:10024A00FD7F36222097091206D13097FD7F37228B
:10025A00D290D291C292D2932094091206D13094AC
:10026A00FD7F38222095091206D13095FD7F39226B
:10027A002096091206D13096FD7F41222097091255
:10028A0006D13097FD7F2D22D290D291D292C2937D
:10029A002094091206D13094FD7F4222209509123A
:1002AA0006D13095FD7F30222096091206D130966C
:1002BA00FD7F3D222097091206D13097FD7F2B2220
:0302CA007F6E2222
:0A0782007F6EBF6E051201EA80F8D9
:01078C00224A
:1002CD0073657420506173733A00456E74657220C6
:1002DD00506173733A0048656C6C6F00446F6F72B8
:1002ED00206973204F70656E0057726F6E672070B6
:1002FD00617373776F726400317374205472616926
:10030D006C206F76657200326E6420547261696C78
:10031D00206F766572004C61737420547261696C44
:10032D000053797374656D206973206C6F636B6511
:10033D006400456E746572204D6173746572204B57
:10034D00657900546F20556E6C6F636B2053797314
:10035D0074656D2100456E746572204D5F5061733B
:10036D00733A0053797374656D20556E6C6F636BC2
:01037D00007F
:1006ED00010A0401090001080005113132332D0002
:0706FD00050B313131310022
:0300030002037E77
:10037E00C0E0C0F0C083C082C0D075D000C000C045
:10038E0001C002C003C004C005C006C00712077634
:10039E007BFF7A0279CD12063D7509001207828F16
:1003AE0010E5106014FDAF091206B2AF101207640B
:1003BE007F2C7E0112068E0509E509B50ADEE4FFE3
:1003CE001205D28F117F011205D28F127F021205F4
:1003DE00D28F137F031205D28F14AF11120764AFA1
:1003EE0012120764AF13120764AF141207647FD0A2
:1003FE007E0712068E1207767509007BFF7A027948
:10040E00D712063DD007D006D005D004D003D002B7
:0F041E00D001D000D0D0D082D083D0F0D0E03247
:10000600E4F51B12053B1207767BFF7A0279E312B1
:10001600063D12078D7590F075A881E4FF1205D292
:100026008F117F011205D28F127F021205D28F1314
:100036007F031205D28F141207767BFF7A0279D7D7
:1000460012063DE4F509F51B1207828F10E51060D4
:100056001574002509F8A610AF101207647F1E7EDE
:100066000012068E0509E509B50ADDE4F509F5096C
:10007600C3E50A6480F8E509648098501674112572
:1000860009F8E6FF74002509F8E6B50702051B0521
:100096000980DDE50A14651B70341207767BFF7A4A
:1000A6000279E912063DD280C2817FE87E031206FC
:1000B6008EC280C2817FB87E0B12068EC280D2812C
:1000C6007FE87E0312068EC280C2810201E4120717
:1000D600767BFF7A0279F612063D7FE87E031206EA
:1000E6008E120776E4F509C3E508648094835043CD
:1000F600120776E508700B1207767BFF7A037905FF
:10010600801EE508B4010B1207767BFF7A0379148B
:10011600800EE508B4020C1207767BFF7A0379237A
:1001260012063DC2827FF47E0112068ED282050837
:100136000201E41207767BFF7A03792E12063D7FD1
:10014600D07E0712068E1207767BFF7A03793F125E
:10015600063D7FC11207527BFF7A03795012063D96
:100166007FD07E0712068E1207761207767BFF7AFD
:0E01760003796212063D7FC1120752E4F509BB
:100184001207828F1CE51C601574002509F8A61C53
:10019400AF1C1207647F2C7E0112068E0509E50947
:0301A400B50ADDBC
:1001A700E4F509F51BF509C3E50A6480F8E5096478
:1001B70080985016740B2509F8E6FF74002509F896
:1001C700E6B50702051B050980DDE50A14651B7006
:1001D700981207767BFF7A03797012063DE4F509DA
:0301E70002003DD6
:10068E00758921E4FDFCC3ED9FEC9E5016758CFC24
:10069E00758A66D28C308DFDC28CC28D0DBD000167
:0306AE000C80E3DA
:0106B1002226
:100752008FA0C2B3C2B4D2B57F147E0012068EC27D
:02076200B522BE
:100764008FA0D2B3C2B4D2B57F327E0012068EC23D
:02077400B522AC
:10053B007F021207527F017E0012068E7F03120785
:10054B00527F017E0012068E7F381207527F017E8A
:10055B000012068E7F0C1207527F017E0012068E50
:10056B007F011207527F017E0012068E7F06120753
:10057B00527F017E0012068E7F801207527F017E12
:04058B000002068ED6
:06063D008B1D8A1E891FBF
:10064300E4F520F521AB1DAA1EA91F852182852073
:10065300831204B9FF600D1207640521E52170E5DB
:04066300052080E10D
:010667002270
:0C0776007F011207527F647E0002068E95
:1006B2008F168D1780077FA012058F500512070530
:0F06C20080F4AF1612058FAF1712058F02072CA9
:0205D2008F1D7B
:1005D400E4F51E80077FA012058F500512070580E1
:1005E400F4AF1D12058F1207197FA112058F120691
:1005F4000F8F1E12073FC2B77FF47E01120675D219
:0A060400B77FF47E01120675AF1EE9
:01060E0022C9
:0D0668007FFA7E00120675D2B67FFA7E0082
:100675007C007D0F1204E6E4FDFCC3ED9FEC9E506B
:08068500070DBD00010C80F21D
:01068D00224A
:05078D00D2B7D2B62234
:10070500D2B6D2B77FF47E01120675C2B77FF47EEA
:040715000102067562
:10071900C2B6120671D2B7120668C2B77FFA7E0056
:0307290002067550
:10072C00C2B6120671C2B7120668D2B77FFA7E0043
:03073C000206753D
:10073F00C2B6120671D2B7120671D2B67FF47E011D
:03074F000206752A
:02058F00AB07B8
:10059100E4FAC2B6120671EBA802088002C333D88E
:1005A100FC30E704D2B78002C2B7120671D2B67F1F
:1005B100F47E011206750ABA08D8C2B6D2B77FF422
:1005C1007E01120675D2B67FF47E01120675A2B7BE
:0105D1002207
:10060F00E4FBFAC2B6D2B77FF47E0112066CA2B732
:10061F00E433F9C374079AFFE9A807088002C333CC
:0D062F00D8FC42031206710ABA08D8AF03C6
:01063C00229B
:0300000002042DCA
:0C042D00787FE4F6D8FD7581210204748C
:1004B900BB010CE58229F582E5833AF583E02250F8
:1004C90006E92582F8E622BBFE06E92582F8E22242
:0D04D900E58229F582E5833AF583E493225C
:1004E600BC000BBE0029EF8DF084FFADF022E4CCFA
:1004F600F875F008EF2FFFEE33FEEC33FCEE9DECC3
:10050600984005FCEE9DFE0FD5F0E9E4CEFD22ED08
:10051600F8F5F0EE8420D21CFEADF075F008EF2F52
:10052600FFED33FD4007985006D5F0F222C398FD43
:050536000FD5F0EA22E0
:10043900020006E493A3F8E493A34003F68001F2D3
:1004490008DFF48029E493A3F85407240CC8C333C4
:10045900C4540F4420C8834004F456800146F6DF93
:10046900E4800B01020408102040809006EDE47E30
:10047900019360BCA3FF543F30E509541FFEE49388
:10048900A360010ECF54C025E060A840B8E493A34F
:10049900FAE493A3F8E493A3C8C582C8CAC583CA7A
:1004A900F0A3C8C582C8CAC583CADFE9DEE780BE32
:0107040000F4
:00000001FF
