:0D0301007FFA7E0012030ED2B67FFA7E0056
:10030E007C007D0F120113E4FDFCC3ED9FEC9E50AB
:08031E00070DBD00010C80F287
:0103260022B4
:05045000D2B7D2B62274
:10039F00D2B6D2B77FF47E0112030EC2B77FF47EBE
:0403AF000102030E36
:1003C700C2B612030AD2B7120301C2B77FFA7E0080
:0303D70002030E10
:1003DA00C2B612030AC2B7120301D2B77FFA7E006D
:0303EA0002030EFD
:1003ED00C2B612030AC2B712030AD2B67FF47E0157
:0303FD0002030EEA
:10040000C2B612030AD2B712030AD2B67FF47E0133
:0304100002030ED6
:02016800AB07E3
:10016A00E4FAC2B612030AEBA802088002C333D823
:10017A00FC30E704D2B78002C2B712030AD2B67FB4
:10018A00F47E0112030E0ABA08D8C2B6D2B77FF4B7
:10019A007E0112030ED2B67FF47E0112030EA2B7BD
:0101AA002232
:1002A800E4FBFAC2B6D2B77FF47E01120305A2B707
:1002B800E433F9C374079AFFE9A807088002C33337
:0D02C800D8FC420312030A0ABA08D8AF039B
:0102D5002206
:100413008F90C2B2C2B3D2B47F147E00120327C23C
:02042300B42201
:07038600120113EF4430FFE8
:10038D008F90D2B2C2B3D2B47F327E00120327C295
:02039D00B42288
:10026C007F381204137F017E001203277F0C1204C7
:10027C00137F017E001203277F011204137F017E7E
:10028C00001203277F061204137F017E001203273E
:0C029C007F801204137F017E0002032704
:0602D6008B098A0A890B66
:1002DC00E4F50CF50DAB09AA0AA90B850D82850C6A
:1002EC00831200E6FF600D12038D050DE50D70E520
:0402FC00050C80E18C
:0103000022DA
:1003B3008F09ED7006E50924808004E50924C0FF58
:0403C30012041322EB
:0C0425007F011204137F017E00020327F8
:1001AB008E098F0A7C007D64120386AE09AF0A7C30
:1001BB00007D641201137E007F0ACFCDCFCECCCE53
:1001CB00120386AE09AF0A7C007D641201137E0018
:1001DB007F0ACFCDCFCECCCE120113ED4430FF0230
:0201EB00038D82
:0804480056616C7565203D0052
:10034B008F098D0A80077FA0120168500512039F49
:0F035B0080F4AF09120168AF0A1201680203DAD9
:02022F008F0935
:10023100E4F50A80077FA0120168500512039F8030
:10024100F4AF091201681203C77FA11201681202FB
:10025100A88F0A120400C2B77FF47E0112030ED2E6
:0A026100B77FF47E0112030EAF0A0E
:01026B002270
:1001ED0012045012026C7F0A7E001203277BFF7AE5
:1001FD000479481202D67D06E4FF12034BE4FF1288
:10020D00022F8F08E4FD7F081203B3AF087E0012A2
:10021D0001AB7D01E4FF1203B37F3D7E001201AB04
:02022D0080FE51
:10032700758921E4FDFCC3ED9FEC9E5016758CFC8E
:10033700758A66D28C308DFDC28CC28D0DBD0001D1
:030347000C80E344
:01034A002290
:04036A007F107E275B
:10036E00E4FDFCC3ED9FEE6480F8EC6480985007CA
:07037E000DBD00010C80EC35
:010385002255
:10000300C290D291D292D29320940912036A30946F
:10001300FD7F372220950912036A3095FD7F382230
:1000230020960912036A3096FD7F39222097091220
:10003300036A3097FD7F2F22D290C291D292D2933E
:1000430020940912036A3094FD7F3422209509120B
:10005300036A3095FD7F352220960912036A309694
:10006300FD7F362220970912036A3097FD7F78229D
:10007300D290D291C292D29320940912036A3094FF
:10008300FD7F312220950912036A3095FD7F3222CC
:1000930020960912036A3096FD7F332220970912B6
:1000A300036A3097FD7F2D22D290D291D292C293D0
:1000B30020940912036A3094FD7F4322209509128C
:1000C300036A3095FD7F302220960912036A309629
:1000D300FD7F3D2220970912036A3097FD7F2B2273
:0300E3007F6E220B
:0A043D007F6EBF6E0512000380F809
:010447002292
:03000000020431C6
:0C043100787FE4F6D8FD75810D0201ED26
:1000E600BB010CE58229F582E5833AF583E02250CF
:1000F60006E92582F8E622BBFE06E92582F8E22219
:0D010600E58229F582E5833AF583E4932232
:10011300BC000BBE0029EF8DF084FFADF022E4CCD0
:10012300F875F008EF2FFFEE33FEEC33FCEE9DEC99
:10013300984005FCEE9DFE0FD5F0E9E4CEFD22EDDF
:10014300F8F5F0EE8420D21CFEADF075F008EF2F29
:10015300FFED33FD4007985006D5F0F222C398FD1A
:050163000FD5F0EA22B7
:00000001FF
