:1001FF00758921E4FDFCC3ED9FEC9E5016758CFCB8
:10020F00758A66D28C308DFDC28CC28D0DBD0001FA
:03021F000C80E36D
:0102220022B9
:06022300D2A77F0A7E0055
:100229007C007D0F1201AAE4FDFCC3ED9FEC9E50FA
:08023900070DBD00010C80F26D
:01024100229A
:10025B00C2A0C2A1C2A2C2A3D2A4C2A5C2A6C2A757
:04026B007580FF2279
:10000300E4FBFAF513F514EFB40800504D90001714
:10001300F828287302002F02003302003702003B46
:1000230002003F02004702004F020057C2A2800EA7
:10003300C2A28012C2A28016C2A2801AD2A2C2A1F8
:10004300C2A08016D2A2C2A1D2A0800ED2A2D2A1F7
:10005300C2A08006D2A2D2A1D2A0120225D2A3129C
:100063000223C2A7D2A6120225D2A7C2A312022537
:10007300C2A7C2A6E4FAFBB2A712022530A40B0B57
:10008300BB00010ABA07F0BBD0EDE4FAFBB2A7123A
:10009300022520A40B0BBB00010ABA07F0BBD0ED6D
:1000A300C2A7D2A5120225120223C2A7120225D289
:1000B300A7AF807513008F14120225C2A5C2A71221
:0400C3000225AF144F
:0100C7002216
:0C026F000A08C0F9A4B0999282F88090AF
:10024200E4F51212025B7F017E001201FF7F0112B0
:0902520000038F1212015480F424
:100154008F13D2B5E51375F064842408F8E6F5909E
:100164007F017E001201FFC2B5D2B6E51375F064BB
:1001740084E5F075F00A842408F8E6F5907F017EA2
:10018400001201FFC2B6D2B7E51375F06484E5F03E
:1001940075F00A84740825F0F8E6F5907F017E0076
:0601A4001201FFC2B722A8
:030000000200C833
:0C00C800787FE4F6D8FD75811402010F6A
:1001AA00BC000BBE0029EF8DF084FFADF022E4CC39
:1001BA00F875F008EF2FFFEE33FEEC33FCEE9DEC02
:1001CA00984005FCEE9DFE0FD5F0E9E4CEFD22ED48
:1001DA00F8F5F0EE8420D21CFEADF075F008EF2F92
:1001EA00FFED33FD4007985006D5F0F222C398FD83
:0501FA000FD5F0EA2220
:1000D400020242E493A3F8E493A34003F68001F2FE
:1000E40008DFF48029E493A3F85407240CC8C3332D
:1000F400C4540F4420C8834004F456800146F6DFFC
:10010400E4800B010204081020408090026FE47E1A
:10011400019360BCA3FF543F30E509541FFEE493F0
:10012400A360010ECF54C025E060A840B8E493A3B7
:10013400FAE493A3F8E493A3C8C582C8CAC583CAE2
:10014400F0A3C8C582C8CAC583CADFE9DEE780BE9A
:01027B000082
:00000001FF
