:0C0A4000446174653A0054696D653A0029
:050A1C00120A21D2A620
:060A2100E4FF0FBF0FFC13
:010A270022AC
:060A6E00120A1CC2A622C0
:1009FB0030A602C2A6D2A7D2A6120A21C2A7120AF9
:040A0B0021C2A6223C
:0D0A0F0030A602C2A6C2A7120A1CD2A7225E
:09088700AC07AA051209FB7FD0A1
:02089000AE07B1
:10089200E4FDEE339200A20092A7120A6EEE25E06A
:1008A200FE0DBD08EDD2A7120A1CA2A79200C2A695
:0508B200120A21A20062
:0108B700221E
:10092800E4FEFD120A1CA2A79200EE25E0FEA2003A
:0C093800E4334206C2A60DBD08E9AF067C
:010944002290
:0B0A5800C2A7120A21120A6ED2A722C8
:0B0A6300D2A7120A21120A6ED2A622AE
:02094500AC07FD
:1009470012088BAF041208901209FB7FD11208908E
:0A095700120928AE07120A0FAF06BE
:010961002273
:10097D00120887E4FF120890AF03120890AF02121D
:0A098D000890AF04120890020A0F50
:100997001208877F04120890AF04120890AF021262
:0A09A7000890AF03120890020A0F37
:1009B100E4FEEEC39F5011E4FDFC0DBD00010CBC33
:0809C10005F8BDFFF50E80EA08
:0109C900220B
:10090400EBC4540FFFE5A054F04FF5A012091EEB01
:0A091400540FFFE5A054F04FF5A0CA
:0A091E00C2A47F011209B1D2A42285
:0C0A2800AB07C2A51209047F010209B14E
:0C0A3400AB07D2A51209047F010209B132
:1008DF008B0D8A0E890FAB0DAA0EA90F1209CA60D4
:1008EF0013050FE50F7002050E14F91209CAFF1256
:0508FF000A3480E22232
:1008B800D2A4C2A57F33120A287F32120A287F28C1
:1008C800120A287F0C120A287F06120A287F0112B2
:0708D8000A28E4FF0209B148
:10096200E4FFE4FB0BBBFFFC0FBF10F61208B8E478
:0A097200FB7F021209B10BBB0AF76C
:01097C002258
:0209E300AA0761
:1009E500EA54F0C4540F4430FF120A34EA540FFF9E
:0609F500430730020A3442
:100800001209627F80120A287BFF7A0A7940120857
:10081000DF7FC0120A287BFF7A0A79461208DFE4DC
:10082000FF1209458F087F011209458F097F0212C7
:1008300009458F0A7F041209458F0B7F0512094570
:100840008F0C7F06120945A9077F86120A28AF0B75
:100850001209E37F2F120A34AF0C1209E37F2F1223
:100860000A34AF011209E37FC6120A28AF0A12093F
:10087000E37F3A120A34AF091209E37F3A120A34CD
:07088000AF081209E38098A4
:03000000020A4CA5
:0C0A4C00787FE4F6D8FD758120020800D8
:1009CA00BB010689828A83E0225002E722BBFE022B
:0909DA00E32289828A83E493225E
:00000001FF
