:1000C900758921E4FDFCC3ED9FEC9E5016758CFCEF
:1000D900758A66D28C308DFDC28CC28D0DBD000132
:0300E9000C80E3A5
:0100EC0022F1
:100101008F90C2A0C2A1D2A27F0A7E001200C9C2F2
:02011100A22228
:100003007F381201017F017E001200C97F0E1201A9
:10001300017F017E001200C97F011201017F017E71
:10002300001200C97F061201017F017E001200C980
:0C0033007F801201017F017E000200C9E5
:06003F008B088A09890A02
:10004500E4F50BF50CAB08AA09A90A850C82850B0A
:1000550083120077601BF590D2A0C2A1D2A27F0ABD
:100065007E001200C9C2A2050CE50C70D8050B80F4
:01007500D4B6
:010076002267
:1000ED008F08ED7006E50824808004E50824C0FF24
:0400FD0012010122C9
:100113004A69676E657368005061746F6C697961D1
:0101230000DB
:1000A400120003E4FD7F041200ED7BFF7A01791353
:1000B40012003F7D017F051200ED7BFF7A01791B61
:0500C40012003F80FE68
:03000000020124D6
:0C012400787FE4F6D8FD75810C0200A481
:10007700BB010CE58229F582E5833AF583E022503E
:1000870006E92582F8E622BBFE06E92582F8E22288
:0D009700E58229F582E5833AF583E49322A2
:00000001FF
