:1001BE0020536F6C617220547261636B696E67209D
:1001CE002D2D646576656C6F7065642062792D2DBA
:1001DE00204E65656C20446872756D697400000070
:1001EE00204D65657420416E6B697400000000003F
:0401FE00FEFBFDF710
:100202007F107E271202127F801202447F017E003D
:10021200E4FDFCC3ED9FEC9E5015E4FBFA0BBB0022
:0F022200010AEB64644A70F50DBD00010C80E425
:0102310022AA
:0E0244008FB0D2A3C2A4D2A512020EC2A52270
:04023200E50D93FF44
:0E0236008FB0C2A3C2A4D2A512020EC2A5228E
:10017500750A03AF0AEF3395E0FE74FE2FF582741E
:0F018500013EF583E493F5907FB87E0B120212D2
:100194007580FFD2A1D2A2D2A012020EC2A0120276
:1001A40012D2A020A1FD7F0A7E00120212C2A27FF9
:0A01B40001120212D2A285800F2270
:100003007F3812020B7F0C12020B1202447F017E17
:1000130000120206E4F50D9001BE12023212020E26
:10002300050DE50DC3941040EE7FC012020BE4F5FD
:100033000D9001CE12023212020E050DE50DC3948E
:100043001040EE120202E4F50DE50D9001DE93FF80
:1000530012023612020E050DE50DC3941040EA7F1D
:10006300C012020BE4F50DE50D9001EE93FF1202B1
:100073003612020E050DE50DC3941040EA1202027A
:100083007F107E27120212E4F50CF50E7590FFF532
:100093000AAF0AEF3395E0FE74FE2FF58274013E3A
:1000A300F583E493F5907FE87E0312021212019424
:1000B300850F0C050AD3E50A64809483400BE4F5AD
:1000C3000A120178850F0B150AC3E50A6480948030
:1000D3005008120175850F09150AC3E50A64809457
:1000E300805008120175850F08050AD3E50A64805C
:1000F30094834006E4F50A020165E50BD3950940B4
:1001030030050AD3E50A648094834003E4F50A12B8
:100113000178850F0EE50ED3950C4005850E0C80F6
:10012300E0150AC3E50A648094805003750A0380CE
:1001330031E508D395094030150AE50AB4FF037584
:100143000A03120178850F0EE50ED3950C40058541
:100153000E0C80E4050AD3E50A648094834003E42B
:10016300F50A120178850F0C7F107E271202120206
:0201730000B6D4
:03000000020252A7
:0C025200787FE4F6D8FD75810F020003F0
:00000001FF
