:04062B007F107E2797
:10062F00E4FDFCC3ED9FEE6480F8EC648098500706
:07063F000DBD00010C80EC71
:010646002291
:10018500C290D291D292D29320940912062B309428
:10019500FD7F372220950912062B3095FD7F3822E9
:1001A50020960912062B3096FD7F392220970912D9
:1001B500062B3097FD7F2F22D290C291D292D293F7
:1001C50020940912062B3094FD7F342220950912C4
:1001D500062B3095FD7F352220960912062B309689
:1001E500FD7F362220970912062B3097FD7F782256
:1001F500D290D291C292D29320940912062B3094B8
:10020500FD7F312220950912062B3095FD7F322284
:1002150020960912062B3096FD7F3322209709126E
:10022500062B3097FD7F2D22D290D291D292C29388
:1002350020940912062B3094FD7F43222095091244
:10024500062B3095FD7F302220960912062B30961D
:10025500FD7F3D2220970912062B3097FD7F2B222B
:030265007F6E2287
:0A0703007F6EBF6E0512018580F8BD
:01070D0022C9
:10042C0073657420506173733A00456E7465722065
:10043C00506173733A00436F727265637400696E36
:10044C00636F72726563742070617373776F72641B
:10045C000053797374656D206973206C6F636B65E1
:10046C006400456E746572204D6173746572204B27
:10047C00657900546F20556E6C6F636B20537973E4
:10048C0074656D2100456E746572204D5F5061730B
:10049C00733A0053797374656D20556E6C6F636B92
:0104AC00004F
:10064700010A0401090001080005113132332D00A8
:07065700050B3131313100C8
:030003000202688E
:10026800C0E0C0F0C083C082C0D075D000C000C05C
:1002780001C002C003C004C005C006C0071206F7CB
:100288007BFF7A04792C1205977509001207038FF2
:1002980010E510601BFDAF0912060C7D01AF0912B5
:1002A800065FAF101206E57F2C7E011205E80509EE
:1002B800E509B50AD7E4FF1204F08F117F01120493
:1002C800F08F127F021204F08F137F031204F08F55
:1002D80014AF111206E5AF121206E5AF131206E5C8
:1002E800AF141206E57FD07E071205E81206F775EF
:1002F80009007BFF7A047936120597D007D006D01B
:1003080005D004D003D002D001D000D0D0D082D004
:0603180083D0F0D0E032BA
:10000600E4F51B12052D1206F712070E7590F07512
:10001600A881E4FF1204F08F117F011204F08F1201
:100026007F021204F08F137F031204F08F1412065E
:10003600F77BFF7A047936120597E4F509F51B126A
:1000460007038F10E510601C74002509F8A6107DC3
:1000560001AF0912065FAF101206E57F2C7E011272
:1000660005E80509E509B50AD6E4F509F509C3E584
:100076000A6480F8E509648098501674112509F819
:10008600E6FF74002509F8E6B50702051B05098099
:10009600DDE50A14B51B0C1206F77BFF7A047942DC
:1000A6000205971206F77BFF7A04794A1205977FB5
:1000B600647E001205E81206F70508E4F509C3E5B3
:1000C600086480948350030200341206F77BFF7A9B
:1000D60004795D1205977FD07E071205E81206F7B0
:1000E6007BFF7A04796E1205977D01E4FF12065FA5
:1000F6007BFF7A04797F1205977FD07E071205E889
:100106001206F71206F77BFF7A047991120597E437
:02011600F509E9
:100118001207038F1CE51C601C74002509F8A61C37
:100128007D01AF0912065FAF1C1206E57F2C7E0128
:0A0138001205E80509E509B50AD62D
:10014200E4F509F51BF509C3E50A6480F8E50964DD
:1001520080985016740B2509F8E6FF74002509F8FB
:10016200E6B50702051B050980DDE50A14651B706B
:10017200961206F77BFF7A04799F120597E4F50938
:0301820002003444
:1005E800758921E4FDFCC3ED9FEC9E5016758CFCCB
:1005F800758A66D28C308DFDC28CC28D0DBD00010E
:030608000C80E380
:01060B0022CC
:1006D3008FA0C2B5C2B3D2B47F147E001205E8C2A4
:0206E300B4223F
:1006E5008FA0D2B5C2B3D2B47F327E001205E8C264
:0206F500B4222D
:10052D007F381206D37F017E001205E87F0C12067C
:10053D00D37F017E001205E87F011206D37F017E75
:10054D00001205E87F061206D37F017E001205E832
:0C055D007F801206D37F017E000205E8BB
:060597008B1D8A1E891F66
:10059D00E4F520F521AB1DAA1EA91F85218285201A
:1005AD00831203AAFF600D1206E50521E52170E512
:0405BD00052080E1B4
:0105C1002217
:10065F008F1DED7006E51D24808004E51D24C0FF6D
:04066F001206D3227A
:0C06F7007F011206D37F017E000205E89F
:10060C008F168D1780077FA01204AD50051206734C
:0F061C0080F4AF161204ADAF171204AD02069AA8
:0204F0008F1D5E
:1004F200E4F51E80077FA01204AD5005120673803A
:10050200F4AF1D1204AD1206877FA11204AD1205CD
:10051200698F1E1206C0C2B77FF47E011205CFD2C8
:0A052200B77FF47E011205CFAF1E73
:01052C0022AC
:0D05C2007FFA7E001205CFD2B67FFA7E00D0
:1005CF007C007D0F1203D7E4FDFCC3ED9FEC9E5022
:0805DF00070DBD00010C80F2C4
:0105E70022F1
:05070E00D2B7D2B622B3
:10067300D2B6D2B77FF47E011205CFC2B77FF47E24
:04068300010205CF9C
:10068700C2B61205CBD2B71205C2C2B77FFA7E0037
:030697000205CF8A
:10069A00C2B61205CBC2B71205C2D2B77FFA7E0024
:0306AA000205CF77
:1006AD00C2B61205CBC2B71205CBD2B67FF47E010E
:0306BD000205CF64
:1006C000C2B61205CBD2B71205CBD2B67FF47E01EB
:0306D0000205CF51
:0204AD00AB079B
:1004AF00E4FAC2B61205CBEBA802088002C333D818
:1004BF00FC30E704D2B78002C2B71205CBD2B67FA9
:1004CF00F47E011205CF0ABA08D8C2B6D2B77FF4AC
:1004DF007E011205CFD2B67FF47E011205CFA2B7EF
:0104EF0022EA
:10056900E4FBFAC2B6D2B77FF47E011205C6A2B780
:10057900E433F9C374079AFFE9A807088002C33373
:0D058900D8FC42031205CB0ABA08D8AF0314
:010596002242
:0300000002031EDA
:0C031E00787FE4F6D8FD758121020365AC
:1003AA00BB010CE58229F582E5833AF583E0225008
:1003BA0006E92582F8E622BBFE06E92582F8E22252
:0D03CA00E58229F582E5833AF583E493226C
:1003D700BC000BBE0029EF8DF084FFADF022E4CC0A
:1003E700F875F008EF2FFFEE33FEEC33FCEE9DECD3
:1003F700984005FCEE9DFE0FD5F0E9E4CEFD22ED19
:10040700F8F5F0EE8420D21CFEADF075F008EF2F62
:10041700FFED33FD4007985006D5F0F222C398FD53
:050427000FD5F0EA22F0
:10032A00020006E493A3F8E493A34003F68001F2E3
:10033A0008DFF48029E493A3F85407240CC8C333D4
:10034A00C4540F4420C8834004F456800146F6DFA3
:10035A00E4800B0102040810204080900647E47EE6
:10036A00019360BCA3FF543F30E509541FFEE49398
:10037A00A360010ECF54C025E060A840B8E493A35F
:10038A00FAE493A3F8E493A3C8C582C8CAC583CA8A
:10039A00F0A3C8C582C8CAC583CADFE9DEE780BE42
:01065E00009B
:00000001FF
