:100941008096ACC0D2E2EFF8FEFFFEF8EFE2D2C033
:10095100AC96806A54402E1E110802000208111E36
:040961002E40546A66
:10091D00758901E4FDFCC3ED9FEC9E5016758CFCB2
:10092D00758A66D28C308DFDC28CC28D0DBD0001D5
:03093D000C80E348
:010940002294
:1008F60078087C007D007BFF7A0979417E007F24A1
:030906001208D004
:10090900E4F52C7408252CF8E6F5A0052CE52CB4A3
:0409190024F180EC59
:030000000209658D
:0C096500787FE4F6D8FD75812C0208F6BE
:10080000E709F608DFFA8046E709F208DFFA803EDA
:1008100088828C83E709F0A3DFFA8032E309F608C7
:10082000DFFA8078E309F208DFFA807088828C832F
:10083000E309F0A3DFFA806489828A83E0A3F608E3
:10084000DFFA805889828A83E0A3F208DFFA804CBD
:1008500080D280FA80C680D4806980F28033801094
:1008600080A680EA809A80A880DA80E280CA8033FD
:1008700089828A83ECFAE493A3C8C582C8CCC58375
:10088000CCF0A3C8C582C8CCC583CCDFE9DEE78045
:100890000D89828A83E493A3F608DFF9ECFAA9F0C4
:1008A000EDFB2289828A83ECFAE0A3C8C582C8CC1A
:1008B000C583CCF0A3C8C582C8CCC583CCDFEADE33
:1008C000E880DB89828A83E493A3F208DFF980CC95
:1008D00088F0EF60010E4E60C388F0ED2402B4048E
:1008E0000050B9F582EB2402B4040050AF23234535
:0608F00082239008507302
:00000001FF
