:10073700E4FDFCC3ED9FEC9E50070DBD00010C804E
:01074700F2BF
:01074800228E
:1006A0008F188D1980077FD01204FF50051206D7CE
:0F06B00080F4AF181204FFAF191204FF0206FE08
:020542008F1A0E
:10054400E4F51B80077FD01204FF50051206D78004
:10055400F4AF1A1204FF1206EB7FD11204FF120546
:10056400E18F1B120724C2A07FF47E0112061CD265
:0A057400A07FF47E0112061CAF1BED
:01057E00225A
:0804B4008F0C8B0D8A0E890FDD
:1004BC0080077FD01204FF50051206D780F4AF0CD2
:1004CC001204FFE4F511F512C3E5129510E5119431
:1004DC0000501DAB0DAA0EA90F8512828511831237
:1004EC000106FF1204FF0512E51270DC051180D81D
:0304FC000206FEF7
:0802E1008F088B098A0A890BC2
:1002E90080077FD01204FF50051206D780F4AF08AB
:1002F9001204FF1206EB7FD11204FF1205E1AB09CC
:10030900AA0AA90BEF120133750E00750F01C3E597
:100319000F950DE50E950C50201207111205E1AB52
:1003290009AA0AA90B850F82850E83EF12014505DB
:100339000FE50F70D9050E80D5120724C2A07FF4EE
:0E0349007E0112061CD2A07FF47E0102061C6B
:1003B300E50B75F00A84C454F0FEE50B75F00A846E
:1003C300E5F04EF514EB75F00A84C454F0FEEB75BA
:1003D300F00A84E5F04EF515ED75F00A84C454F087
:1003E300FEED75F00A84E5F04EF516EF146008048F
:1003F300700843164080034316607B007A0079142B
:08040300751003E4FF0204B4CC
:100260007B007A007914750C00750D03E4FF12020F
:10027000E1851413E513547FC4540F75F00AA4FFED
:10028000E513540F2FF514851513E513C4540F759A
:10029000F00AA4FFE513540F2FF515E51630E623F9
:1002A00030E5057517018003E4F517851613E5138E
:1002B000541FC4540F75F00AA4FFE513540F2FF513
:1002C000168017851613E513C4540F75F00AA4FFA2
:1002D000E513540F2FF5167517027B007A00791479
:0102E00022FB
:10035700E50B75F00A84C454F0FEE50B75F00A84CA
:10036700E5F04EF514EF75F00A84C454F0FEEF750E
:10037700F00A84E5F04EF515ED75F00A84C454F0E3
:10038700FFED75F00A84E5F04FF516EB75F00A847A
:10039700C454F0FFEB75F00A84E5F04FF5177B00C6
:0C03A7007A0079147510047F030204B47E
:100460007B007A007914750C00750D047F0312026D
:10047000E1851513E513C4540F75F00AA4FFE513C5
:10048000540F2FF515851613E513C4540F75F00A94
:10049000A4FFE513540F2FF516851713E513C45465
:1004A0000F75F00AA4FFE513540F2FF5177B007AA0
:0404B0000079142299
:0D060F007FFA7E0012061CD2A17FFA7E0049
:10061C007C007D0F120167E4FDFCC3ED9FEC9E5046
:08062C00070DBD00010C80F276
:0106340022A3
:05076300D2A0D2A1228A
:1006D700D2A1D2A07FF47E0112061CC2A07FF47EB5
:0406E7000102061CEA
:1006EB00C2A1120618D2A012060FC2A07FFA7E007A
:0306FB0002061CD8
:1006FE00C2A1120618C2A012060FD2A07FFA7E0067
:03070E0002061CC4
:10071100C2A1120618C2A0120618D2A17FF47E014E
:0307210002061CB1
:10072400C2A1120618D2A0120618D2A17FF47E012B
:0307340002061C9E
:0204FF00AB0749
:10050100E4FAC2A1120618EBA802088002C333D88C
:10051100FC30E704D2A08002C2A0120618D2A17F4B
:10052100F47E0112061C0ABA08D8C2A1D2A07FF437
:100531007E0112061CD2A17FF47E0112061CA2A02C
:010541002297
:1005E100E4FBFAC2A1D2A07FF47E01120613A2A0FD
:1005F100E433F9C374079AFFE9A807088002C333FB
:0D060100D8FC42031206180ABA08D8AF034D
:01060E0022C9
:10063500414D00504D004D4F4E0054554500574516
:1006450044005448550046524900534154005355FF
:060655004E003F3F3F0094
:0606BF0053A00F43A03020
:1006C500D2917FFA7E0012061CC2917FFA7E00024B
:0206D500061C01
:1005B200AB08AA09A90A12010675F00A84E5F0241B
:0205C20030FF08
:1005C4008F0ED29053A00FE50E54F042A01206C530
:0D05D40053A00FE50EC454F042A00206C56E
:100680008E0B8F0CC29053A00FE50C54F042A012B9
:1006900006C553A00FAF0CEFC454F042A00206C52C
:10040B00C290C2917F987E3A12061C1206BF7F944F
:10041B007E1112061C1206BF7F2C7E0112061C12C7
:10042B0006BF7F8A7E0212061C53A00F43A0201228
:10043B0006C57F8A7E0212061C7F287E001206806C
:10044B007F0C7E001206807F017E001206807F06E5
:05045B007E0002068096
:0E0749007F017E001206807FD07E0702061C14
:10065B008B0B8A0C890DAB0BAA0CA90D1200ED604C
:10066B0013050DE50D7002050C14F91200EDFF12C8
:05067B0005C480E2222D
:1001BC008B088A09890A120749AB08AA09A90A906F
:1001CC00000212010675F00A842430FF1205C4AB3C
:1001DC0008AA09A90A9000021205B87F3A1205C4B0
:1001EC00AB08AA09A90A90000112010675F00A844D
:1001FC002430FF1205C4AB08AA09A90A9000011209
:10020C0005B87F3A1205C4AB08AA09A90A1200ED79
:10021C0075F00A842430FF1205C4AB08AA09A90A98
:10022C001200ED1205BB7F201205C4AB08AA09A968
:10023C000A90000312010614600B0470117BFF7A04
:10024C0006793580067BFF7A06793802065B7F4893
:04025C001205C422A1
:100003008B088A09890A7FC07E00120680AB08AA82
:1000130009A90A90000112010675F00A842430FF31
:100023001205C49000011205B27F2F1205C4AB085C
:10003300AA09A90A90000212010675F00A84243065
:10004300FF1205C49000021205B27F2F1205C4AB44
:1000530008AA09A90A90000312010675F00A84246C
:1000630030FF1205C4AB08AA09A90A9000031205C0
:10007300B87F201205C4AB08AA09A90A1200ED141F
:10008300B40700505B90009675F003A4C58325F078
:10009300C583730200AB0200B30200BB0200C302BC
:1000A30000CB0200D30200DB7BFF7A06793B80366C
:1000B3007BFF7A06793F802E7BFF7A067943802681
:1000C3007BFF7A067947801E7BFF7A06794B801681
:1000D3007BFF7A06794F800E7BFF7A067953800681
:0A00E3007BFF7A06795712065B22B4
:10057F0012040B120763750B3B7B207D08E4FF12FF
:10058F0003B3750B057B0C7D0B7F02120357120211
:10059F00601201BC1204601200037FE87EFD120797
:0305AF003780EBA7
:030000000207579D
:0C075700787FE4F6D8FD75811B02057F59
:1000ED00BB010689828A83E0225002E722BBFE0211
:0900FD00E32289828A83E4932244
:10010600BB010CE58229F582E5833AF583E02250AE
:1001160006E92582F8E622BBFE06E92582F8E222F8
:0D012600E58229F582E5833AF583E4932212
:10013300BB010689828A83F0225002F722BBFE01AB
:02014300F322A5
:10014500F8BB010DE58229F582E5833AF583E8F0F0
:10015500225006E92582C8F622BBFE05E92582C89C
:02016500F22284
:10016700BC000BBE0029EF8DF084FFADF022E4CC7C
:10017700F875F008EF2FFFEE33FEEC33FCEE9DEC45
:10018700984005FCEE9DFE0FD5F0E9E4CEFD22ED8B
:10019700F8F5F0EE8420D21CFEADF075F008EF2FD5
:1001A700FFED33FD4007985006D5F0F222C398FDC6
:0501B7000FD5F0EA2263
:00000001FF
