:0400E6007F107E27E2
:1000EA00E4FDFCC3ED9FEE6480F8EC648098500751
:0700FA000DBD00010C80ECBC
:0101010022DB
:10000300C290D291D292D2932094091200E63094F6
:10001300FD7F37222095091200E63095FD7F3822B7
:100023002096091200E63096FD7F392220970912A7
:1000330000E63097FD7F2F22D290C291D292D293C5
:100043002094091200E63094FD7F34222095091292
:1000530000E63095FD7F35222096091200E63096A2
:10006300FD7F36222097091200E63097FD7F782224
:10007300D290D291C292D2932094091200E6309486
:10008300FD7F31222095091200E63095FD7F322253
:100093002096091200E63096FD7F3322209709123D
:1000A30000E63097FD7F2D22D290D291D292C29357
:1000B3002094091200E63094FD7F43222095091213
:1000C30000E63095FD7F30222096091200E6309637
:1000D300FD7F3D222097091200E63097FD7F2B22FA
:0300E3007F6E220B
:0A010E007F6EBF6E0512000380F83B
:0101180022C4
:0701190012010E8FA080F916
:03000000020102F8
:0C010200787FE4F6D8FD75810702011932
:00000001FF
