:0A01EB0075A0FFD2B5D2B6D2B7223C
:0E01C500D2B7C2B6D2B620B5FDC2B7AFA022E7
:10016200758921E4FDFCC3ED9FEC9E5016758CFC55
:10017200758A66D28C308DFDC28CC28D0DBD000198
:030182000C80E30B
:010185002257
:0901F50054656D702E203D2000C0
:100103001201EB1200C71201D3E4FDFF12019F7B22
:10011300FF7A0179F51201371201C58F0DE4FD7FD6
:100123000812019FAF0D7E001200857F0A7E001228
:04013300016280E401
:1001B3008F90C2B2C2B3D2B47F0A7E00120162C270
:0201C300B42264
:07018600120030EF4430FFCE
:10018D008F90D2B2C2B3D2B47F0A7E00120162C286
:02019D00B4228A
:1000C7007F381201B37F017E001201627F0C12019B
:1000D700B37F017E001201627F011201B37F017EAF
:1000E700001201627F061201B37F017E00120162D6
:0C00F7007F801201B37F017E00020162D5
:060137008B088A09890A09
:10013D00E4F50BF50CAB08AA09A90A850C82850B11
:10014D0083120003FF600D12018D050CE50C70E5A7
:04015D00050B80E12D
:01016100227B
:10019F008F08ED7006E50824808004E50824C0FF71
:0401AF001201B32264
:0C01D3007F011201B37F017E0002016277
:100085008E088F097C007D64120186AE08AF097C5D
:10009500007D641200307E007F0ACFCDCFCECCCE5E
:1000A500120186AE08AF097C007D641200307E0027
:1000B5007F0ACFCDCFCECCCE120030ED4430FF023B
:0200C500018DAB
:030000000201DF1B
:0C01DF00787FE4F6D8FD75810D02010365
:10000300BB010CE58229F582E5833AF583E02250B2
:1000130006E92582F8E622BBFE06E92582F8E222FC
:0D002300E58229F582E5833AF583E4932216
:10003000BC000BBE0029EF8DF084FFADF022E4CCB4
:10004000F875F008EF2FFFEE33FEEC33FCEE9DEC7D
:10005000984005FCEE9DFE0FD5F0E9E4CEFD22EDC3
:10006000F8F5F0EE8420D21CFEADF075F008EF2F0D
:10007000FFED33FD4007985006D5F0F222C398FDFE
:050080000FD5F0EA229B
:00000001FF
