:0A01EE0075A0FFD2B5D2B6D2B72239
:0E01C800D2B7C2B6D2B620B5FDC2B7AFA022E4
:10016500758921E4FDFCC3ED9FEC9E5016758CFC52
:10017500758A66D28C308DFDC28CC28D0DBD000195
:030185000C80E308
:010188002254
:0901F80054656D702E203D2000BD
:100103001201EE1200C71201D6E4FDFF1201A27B19
:10011300FF7A0179F812013A1201C8EF25E0F50DD3
:10012300E4FD7F081201A2AF0D7E001200857FE877
:070133007E0312016580E16B
:1001B6008F90C2B2C2B3D2B47F0A7E00120165C26A
:0201C600B42261
:07018900120030EF4430FFCB
:100190008F90D2B2C2B3D2B47F0A7E00120165C280
:0201A000B42287
:1000C7007F381201B67F017E001201657F0C120195
:1000D700B67F017E001201657F011201B67F017EA6
:1000E700001201657F061201B67F017E00120165CD
:0C00F7007F801201B67F017E00020165CF
:06013A008B088A09890A06
:10014000E4F50BF50CAB08AA09A90A850C82850B0E
:1001500083120003FF600D120190050CE50C70E5A1
:04016000050B80E12A
:010164002278
:1001A2008F08ED7006E50824808004E50824C0FF6E
:0401B2001201B6225E
:0C01D6007F011201B67F017E000201656E
:100085008E088F097C007D64120189AE08AF097C5A
:10009500007D641200307E007F0ACFCDCFCECCCE5E
:1000A500120189AE08AF097C007D641200307E0024
:1000B5007F0ACFCDCFCECCCE120030ED4430FF023B
:0200C5000190A8
:030000000201E218
:0C01E200787FE4F6D8FD75810D02010362
:10000300BB010CE58229F582E5833AF583E02250B2
:1000130006E92582F8E622BBFE06E92582F8E222FC
:0D002300E58229F582E5833AF583E4932216
:10003000BC000BBE0029EF8DF084FFADF022E4CCB4
:10004000F875F008EF2FFFEE33FEEC33FCEE9DEC7D
:10005000984005FCEE9DFE0FD5F0E9E4CEFD22EDC3
:10006000F8F5F0EE8420D21CFEADF075F008EF2F0D
:10007000FFED33FD4007985006D5F0F222C398FDFE
:050080000FD5F0EA229B
:00000001FF
