:10017B0057656C636F6D6500466F727761726420B3
:10018B002020202020202020202020005265766572
:10019B0072736520202020202020202000506963CE
:1001AB006B202020202020202020202020200050E9
:1001BB006C6163652020202020202020202020003F
:1001CB006C656674202020202020202020202020F9
:1001DB0000526967687420202020202020202020D6
:1001EB0020200055502020202020202020202020BF
:1001FB0000446F776E2020202020202020202020FC
:0F020B000053746F70202020202020202020001E
:100003007590FF12021A12030AE4FDFF1202D27B5B
:10001300FF7A01797B12028353900FAF90EF14B4F0
:100023000900400302013F90003875F003A4C58323
:1000330025F0C5837302008002005302009D020075
:10004300BA02013F0200D70200F60200670201175D
:10005300E4FDFF1202D27BFF7A017983120283D27D
:10006300A00200E8E4FDFF1202D27BFF7A01799738
:10007300120283C2A0D2A1C2B2D2B38051E4FDFF67
:100083001202D27BFF7A0179A8120283C2A0C2A115
:10009300C2B2C2B3C2A4D2A58055E4FDFF1202D2FC
:1000A3007BFF7A0179BA120283C2A0C2A1C2B2C293
:1000B300B3D2A4C2A58038E4FDFF1202D27BFF7A3B
:1000C3000179CB120283D2A0C2A1C2B2C2B3C2A42D
:1000D300C2A5801BE4FDFF1202D27BFF7A0179DC0B
:1000E300120283C2A0C2A1D2B2C2B3C2A4C2A5C229
:1000F300A6801DE4FDFF1202D27BFF7A0179EE1286
:100103000283C2A0C2A1C2B2C2B3C2A4C2A5D2A674
:10011300C2A7801FE4FDFF1202D27BFF7A0179FCA4
:10012300120283C2A0C2A1C2B2C2B3C2A4C2A5C2F8
:10013300A6D2A77F647E001202AE8022E4FDFF12E6
:1001430002D27BFF7A02790C120283C2A0C2A1C23F
:10015300B2C2B3C2A4C2A5C2A6C2A7E4F5A07F32AD
:100163007E001202AEC2A0C2A1C2B2C2B3C2A4C276
:08017300A5C2A6C2A702001BF1
:1002AE00758921E4FDFCC3ED9FEC9E5016758CFC08
:1002BE00758A66D28C308DFDC28CC28D0DBD00014B
:0302CE000C80E3BE
:0102D100220A
:1002E6008F80C2B5C2B6D2B77F0A7E001202AEC2F6
:0202F600B7222D
:1002F8008F80D2B5C2B6D2B77F0A7E001202AEC2D4
:02030800B7221A
:10021A007F381202E67F017E001202AE7F0C1202C4
:10022A00E67F017E001202AE7F011202E67F017EA6
:10023A00001202AE7F061202E67F017E001202AEB3
:0C024A007F801202E67F017E000202AEFF
:060283008B088A09890ABC
:10028900E4F50BF50CAB08AA09A90A850C82850BC4
:1002990083120256FF600D1202F8050CE50C70E599
:0402A900050B80E1E0
:0102AD00222E
:1002D2008F08ED7006E50824808004E50824C0FF3D
:0402E2001202E622FC
:0C030A007F011202E67F017E000202AEBD
:03000000020316E2
:0C031600787FE4F6D8FD75810C0200032E
:10025600BB010CE58229F582E5833AF583E022505D
:1002660006E92582F8E622BBFE06E92582F8E222A7
:0D027600E58229F582E5833AF583E49322C1
:00000001FF
